:100000000C9402070C9449070C9449070C94490777
:100010000C9449070C9449070C9449070C94490720
:100020000C9449070C9449070C9446120C9418132D
:100030000C9449070C9449070C9449070C94490700
:100040000C9449070C94DA2B0C9449070C9449073B
:100050000C9449070C94D3210C9449070C9449073C
:100060000C9449070C9449070C9449070C944907D0
:100070000C9449070C9449070C9449070C944907C0
:100080000C9449070C9449070C9449070C944907B0
:100090000C9449070C9449070C9449070C944907A0
:1000A0000C9449070C9449070C9449078513A7132E
:1000B0009A14A7139A14EC130F149A146414771457
:1000C000C517C517F417F41738187218801A801A54
:1000D0008B18801A80198019541A801A801A6B1A8A
:1000E0000000F0A12E002B004C00E10001000000F8
:1000F0001E00140004001D0035004D001F001A00F2
:1001000016001B0048002900200008000700060018
:1001100050002A0021001500090019004F004A0074
:10012000220017000A0005000000E3000152E00071
:100130000000E1000000E20001522B000000E50099
:100140000000E30023001C000B0011000000E4008D
:10015000240018000D00100051004B0025000C0079
:100160000E00360052002C00260012000F0037004F
:100170002F002800270013003300380030004E0005
:100180002D0031003400E5000100000001000100F5
:1001900001000100010000003A001E0220022202BC
:1001A000010001003B001F022102230201000100A7
:1001B0003C002F0226022F00010001003D0030020A
:1001C00027023000010001003E00310235003502F7
:1001D000000001000100010000000100000001001A
:1001E0000100010000000100000001003F0052007A
:1001F00051002402000001004000240021001E00E4
:10020000010001004100250022001F00370001000D
:1002100042002600230020002700010043002502A1
:100220002E0231002E0001004400450001000100B3
:1002300001000000010001000100010001000000B8
:1002400001000100010001000100010001000100A6
:10025000F2000100010001000100F000F1000100C6
:10026000F400010001000100F3000100F5000100AD
:100270000100010001000100000001000100010077
:100280000000010000000100010001000000010069
:100290000000010001000100010001000000010058
:1002A0000100010001000100A9000100010001009E
:1002B0000100AC00AA00B600010001000100AB0083
:1002C000A80001000100010001000100010001007F
:1002D00001000100AE000100010000000A0025300D
:1002E000313662003A200025303258000A722F63FE
:1002F0002030313233343536373839414243444582
:10030000460A000A002530325800626F756E636538
:10031000213A20006C6566742073696465206174FD
:100320007461636865640A006C656674207369644F
:1003300065206E6F7420726573706F6E64696E678E
:100340000A00747279696E6720746F207265736534
:1003500074206D637032333031380A000A444542EC
:1003600055473A20656E61626C65642E0A005B73C6
:100370005D004B6579626F617264207374617274A1
:100380002E0A005B575D005B535D005B525D005BB6
:10039000445D005B435D0016034500720067006F1B
:1003A0000044006F007800200045005A000000164D
:1003B000034500720067006F0044006F0078002062
:1003C0000045005A0000000403090409028D0005DD
:1003D0000100A0FA09040000010301010009211134
:1003E000010001223F000705810308000A090401FA
:1003F000000103010200092111010001224D000743
:1004000005820308000A0904020001030000000934
:1004100021110100012236000705830308000A09A3
:100420000403000203000000092111010001222041
:1004300000070584032000010705040320000109CB
:100440000404000103000000092111010001223908
:1004500000070585031000011201100100000008CB
:10046000EDFE071301000102000105010906A101CB
:10047000050719E029E71500250195087501810296
:100480000508190129059505750191029501750366
:100490009101050719002977150025019578750147
:1004A0008102C00631FF0974A1010975150025FFFD
:1004B0009520750881020976150025FF952075089D
:1004C0009102C005010980A101850216010026B72D
:1004D000001A01002AB700751095018100C0050CB3
:1004E0000901A1018503160100269C021A01002AB8
:1004F0009C02751095018100C005010902A1010946
:1005000001A10005091901290515002501950575A9
:100510000181029501750381010501093009311539
:1005200081257F95027508810609381581257F95FB
:100530000175088106050C0A38021581257F950191
:1005400075088106C0C005010906A101050719E06B
:1005500029E71500250195087501810295017508A7
:10056000810105081901290595057501910295017B
:10057000750391010507190029FF150025FF950650
:1005800075088100C00A002530325820006B65795B
:10059000626F6172645F7265706F72743A20000AF4
:1005A0000025303258006B6579626F6172645F7349
:1005B00065745F6C65643A200064656C5F6B657997
:1005C0005F6269743A2063616E27742064656C3AD7
:1005D00020253032580A006164645F6B65795F6280
:1005E00069743A2063616E2774206164643A20253F
:1005F0003032580A00646F6E652E0A00626F6F67B2
:100600006D61676963207363616E3A202E2E2E2020
:1006100000290A002575002F002575005D2800259A
:10062000640020002564002000256400200025646B
:10063000007C0025303258006D6F7573656B6579ED
:10064000205B62746E7C782079207620685D287249
:1006500065702F61636C293A205B006D6B5F776872
:1006600065656C5F74696D655F746F5F6D6178203F
:100670003D2025640A006D6B5F776865656C5F6D72
:1006800061785F7370656564203D2025640A006DA4
:100690006B5F74696D655F746F5F6D6178203D207D
:1006A00025640A006D6B5F6D61785F7370656564CA
:1006B000203D2025640A006D6B5F696E746572765B
:1006C000616C203D2025640A006D6B5F64656C6180
:1006D00079203D2025640A006D6B5F776865656C45
:1006E0005F74696D655F746F5F6D6178203D202573
:1006F000640A006D6B5F776865656C5F6D61785F3C
:100700007370656564203D2025640A006D6B5F741D
:10071000696D655F746F5F6D6178203D2025640AA7
:10072000006D6B5F6D61785F7370656564203D205F
:1007300025640A006D6B5F696E74657276616C206A
:100740003D2025640A006D6B5F64656C6179203D16
:100750002025640A000A00257500363A207768656E
:10076000656C5F74696D655F746F5F6D61783A2069
:10077000000A00257500353A20776865656C5F6D65
:1007800061785F73706565643A20000A0025750022
:10079000343A2074696D655F746F5F6D61783A20DB
:1007A000000A00257500333A206D61785F7370652B
:1007B00065643A20000A00257500323A20696E749B
:1007C000657276616C286D73293A20000A002575E0
:1007D00000313A2064656C6179282A31306D7329C3
:1007E0003A20000A092D2056616C756573202D0A88
:1007F000004D3E004D25643E20003F00736574208F
:1008000064656661756C740A00433E200077686514
:1008100072652064656C74613A20637572736F72DF
:100820003D25642C20776865656C3D25640A536519
:100830006520687474703A2F2F656E2E77696B6926
:1008400070656469612E6F72672F77696B692F4DD0
:100850006F7573655F6B6579730A000A092D204D0A
:100860006F7573656B6579202D0A4553432F713A77
:1008700009717569740A313A0964656C6179282ACD
:1008800031306D73290A323A09696E746572766186
:100890006C286D73290A333A096D61785F7370654E
:1008A00065640A343A0974696D655F746F5F6D61E0
:1008B000780A353A09776865656C5F6D61785F73B2
:1008C000706565640A363A09776865656C5F7469B6
:1008D0006D655F746F5F6D61780A0A703A097072B6
:1008E000696E742076616C7565730A643A09736584
:1008F000742064656661756C74730A75703A092BAF
:10090000310A646F776E3A092D310A706775703A53
:10091000092B31300A7067646F776E3A092D3130D8
:100920000A0A7370656564203D2064656C746120FB
:100930002A206D61785F7370656564202A202872B3
:100940006570656174202F2074696D655F746F5FD9
:100950006D6178290A003F004D3E2000433E200093
:100960004C25640A000A092D20436F6E736F6C6575
:10097000202D0A4553432F713A09717569740A6D28
:100980003A096D6F7573656B65790A000A092D2048
:100990004D61676963202D0A643A09646562756771
:1009A0000A783A096465627567206D6174726978C6
:1009B0000A6B3A096465627567206B6579626F61DD
:1009C00072640A6D3A096465627567206D6F7573AC
:1009D000650A763A0976657273696F6E0A733A0929
:1009E0007374617475730A633A09636F6E736F6C25
:1009F00065206D6F64650A302D343A096C61796544
:100A000072302D34284631302D4634290A50617514
:100A1000733A09626F6F746C6F616465720A653A4C
:100A200009656570726F6D0A6E3A094E4B524F0A36
:100A30007A3A09736C656570204C4544207465737F
:100A4000740A000A002575002E6E6B726F3A200042
:100A50000A002575002E737761705F6261636B73A6
:100A60006C6173685F6261636B73706163653A2088
:100A7000000A002575002E737761705F67726176DA
:100A8000655F6573633A20000A002575002E6E6F5E
:100A90005F6775693A20000A002575002E7377613B
:100AA000705F72616C745F726775693A20000A004A
:100AB0002575002E737761705F6C616C745F6C6775
:100AC00075693A20000A002575002E636170736C09
:100AD0006F636B5F746F5F636F6E74726F6C3A20DD
:100AE000000A002575002E737761705F636F6E7466
:100AF000726F6C5F636170736C6F636B3A20000A96
:100B00000025303258006B65796D61705F636F6EE0
:100B10006669672E7261773A20000A002575002EFB
:100B20006D6F7573653A20000A002575002E6B65A0
:100B300079626F6172643A20000A002575002E6D9B
:100B400061747269783A20000A002575002E656E7E
:100B500061626C653A20000A0025303258006465F5
:100B60006275675F636F6E6669672E7261773A20A0
:100B7000000A0025750064656661756C745F6C61C0
:100B80007965723A20003F004E4B524F3A206F6613
:100B9000660A004E4B524F3A206F6E0A0074696D20
:100BA00065725F636F756E743A202530346C580A35
:100BB000006B6579626F6172645F6E6B726F3A2071
:100BC00025580A006B6579626F6172645F69646CB5
:100BD000653A2025580A006B6579626F6172645F1F
:100BE00070726F746F636F6C3A2025580A00686FDB
:100BF00073745F6B6579626F6172645F6C65647357
:100C000028293A2025580A000A092D2053746174B6
:100C10007573202D0A004743433A20352E332E307A
:100C2000204156522D4C4942433A20312E382E3124
:100C300073766E204156525F415243483A206176A6
:100C400072350A004F5054494F4E533A204C554686
:100C50004120424F4F544D41474943204D4F55533A
:100C6000454B45592045585452414B455920434F17
:100C70004E534F4C4520434F4D4D414E44204E4B1B
:100C8000524F203531320A004255494C443A203106
:100C9000393566643664202831343A30313A313996
:100CA000204465632032362032303135290A00561F
:100CB00049443A20307846454544284572676F4498
:100CC0006F7820455A29205049443A2030783133F2
:100CD0003037284572676F446F7820455A2920566F
:100CE00045523A203078303030310A004445534381
:100CF0003A20742E6D2E6B2E206B6579626F6172B7
:100D000064206669726D7761726520666F72204536
:100D100072676F646F780A000A092D205665727336
:100D2000696F6E202D0A000A6D6F7573653A206F2A
:100D300066660A000A6D6F7573653A206F6E0A0069
:100D40000A6B6579626F6172643A206F66660A00A9
:100D50000A6B6579626F6172643A206F6E0A000AED
:100D60006D61747269783A206F66660A000A6D6177
:100D7000747269783A206F6E0A000A64656275675A
:100D80003A206F6E0A000A64656275673A206F66E2
:100D9000660A000A0A626F6F746C6F616465722E76
:100DA0002E2E2000433E20006565636F6E666967E6
:100DB0003A0A00536C656570204C45442074657395
:100DC000740A0000000000000000000000000102A2
:100DD00004060A0F17202C3A4A5D71879DB3C7DAC3
:100DE000E9F5FCFFFCF5E9DAC7B39D87715D4A3A86
:100DF0002C20170F0A06040201000000000000006A
:100E00000000000011241FBECFEFDAE0DEBFCDBF2F
:100E100004B603FE27C08091F8019091F901A091DA
:100E2000FA01B091FB018730904BA740B04BD1F451
:100E30001092F8011092F9011092FA011092FB0140
:100E400014BE84B7877F84BF0FB6F894A8958091AD
:100E50006000886180936000109260000FBEE0E047
:100E6000FFE3099511E0A0E0B1E0EEE6FBE502C08A
:100E700005900D92AA33B107D9F721E0AAE3B1E0BA
:100E800001C01D92A83FB207E1F70E94810F0C94A8
:100E9000B52D0C940000FF93EF93E0913A01F0918F
:100EA0003B01309709F00995EF91FF910895FC01FE
:100EB0008591803011F0EFDFFBCF0895FF27E0E24E
:100EC00030E247FF0CC0419597FF09C0EDE2609505
:100ED000709580959095611D711D811D911D27FF55
:100EE00002C0219530E350E2AA27660F771F881FC2
:100EF000991FAA1FA41710F0A41B63955A95A9F770
:100F0000AA3008F0A95FA05DAF93F3956115710554
:100F10008105910541F7ED3211F4EF93F395F21746
:100F200018F43F93F395FBCF8F91B5DFFA95E1F776
:100F30000895E991F9918591803021F0853219F079
:100F4000AADFF9CF089520E0E89455915532C1F316
:100F5000503311F4689455915A3348F4505390F338
:100F6000220F022E220F220F200D250FF4CF0EF498
:100F7000219589919991533619F3533729F15335B6
:100F800059F1BC0188279927E8945C3621F48991AE
:100F9000999168945591543639F446EF7EF077FF75
:100FA0000DC08FEF9FEF0AC055374AE039F0583532
:100FB00040E121F0523642E009F00895FF93EF93AB
:100FC0007DDFEF91FF91B7CFFF93EF93FC0181910C
:100FD0008030B9F360DFFBCFFF93EF9368DFF1CF91
:100FE000DF93CF93CDB7DEB72596A3DFCF91DF9107
:100FF000089561110BC0FC018281882321F085EEE8
:101000000E945F1603C085EE0E94271780E090E0E3
:10101000089508956091BC017091BD018091BE0159
:101020009091BF010E94D82056985E9825982D98DF
:1010300026982E9827982F98813019F0823021F029
:101040000895259A2D9A0895269A2E9A08958AE051
:1010500098E0892B11F00C940A08089556985E9830
:1010600025982D9826982E9827982F988FEF90E006
:10107000909389008093880090938B0080938A00DE
:1010800090938D0080938C00569A5E9A259A2D9AA3
:10109000269A2E9A279A2F9A2FE782E490E12150E0
:1010A00080409040E1F700C0000056985E98259877
:1010B0002D9826982E9827982F98089589EA80933E
:1010C000800089E08093810024982C983F988AB111
:1010D0008F748AB96E98479A8BB1806B8BB9769A68
:1010E0000E942E0889E098E0892B11F00C940908E1
:1010F000089580E28093000180913C0181110EC02F
:101100000E94C80881E080933C012FEF83ED90E3BB
:10111000215080409040E1F700C0000080E40E9430
:10112000CE088093000181112EC00E94F8088093A0
:101130000001811128C00E94F808809300018111EC
:1011400022C08FE30E94F8088093000181111BC028
:101150000E94F00880E40E94CE0880930001811173
:1011600012C08CE00E94F8088093000181110BC02E
:101170000E94F80880930001811105C08FE30E944E
:10118000F808809300010E94F00880910001089502
:101190001092B9008AE08093B800089594EA909381
:1011A000BC009091BC0097FFFCCF9091B900987F54
:1011B000983021F0903111F081E008958093BB00C8
:1011C00084E88093BC008091BC0087FFFCCF8091B5
:1011D000B900887F883111F0803471F780E008957C
:1011E00084E98093BC008091BC0084FDFCCF08950D
:1011F0008093BB0084E88093BC008091BC0087FF93
:10120000FCCF9091B900987F81E0983209F480E09A
:10121000089584E88093BC008091BC0087FFFCCFD8
:101220008091BB00089580910001811115C080E478
:101230000E94CE088093000181110CC082E10E94BF
:10124000F80880930001811105C08FEF0E94F80813
:10125000809300010E94F00884B1807F84B985B139
:10126000807F85B98AB1837F8AB98BB1837F8BB93F
:101270003E98469808950E947908809300010E9444
:10128000130980B38C7080BB81B3836F81BBECE4A6
:10129000F1E0AEE3B1E011921D9281E0EA35F8078A
:1012A000D1F78EE598E0892B11F00C945E08089533
:1012B0007F928F929F92AF92BF92CF92DF92EF92E6
:1012C000FF920F931F93CF93DF93809100018823A8
:1012D000E1F080913D018F5F80933D01811115C048
:1012E00082E493E00E9457070E94790880930001EE
:1012F000882329F088E293E00E94570706C084E122
:1013000093E00E9457070E942E088EE3E82E81E0AA
:10131000F82E8701C0E0D0E09924939492E0892EC2
:10132000AA24A394B12C35E0C32E33E0D32EC730CA
:10133000D10500F580910001811164C080E40E9414
:10134000CE0880930001811112C082E10E94F8084A
:101350008093000181110BC0C5010C2E01C0880FC4
:101360000A94EAF780950E94F808809300010E9491
:10137000F00848C0CA30A1F028F4C83059F0C9308C
:1013800061F005C0CC3089F070F0CD3089F0209A42
:10139000289810C0219A29980DC0229A2A980AC02C
:1013A000239A2B9807C0529A01C0539A5B9802C0A7
:1013B0003E9A4698E0EAEA95F1F78FB18170892567
:1013C000799902C032E001C030E0832B7C9902C0E1
:1013D00034E001C030E0832B7D9902C028E001C0D9
:1013E00020E0822B7E9902C090E101C090E0892B21
:1013F0009FB19095991F9927991F9295990F907E6B
:10140000892B10C080910001811175C080E40E9479
:10141000CE0880930001882309F45AC0712C0E94E1
:10142000F008872DD8019C91981739F18C93809101
:101430000101882301F18091D70180FF04C08AE077
:1014400093E00E9457078091D70180FF0CC08091E4
:1014500001011F928F93DF92CF920E94F0070F90AD
:101460000F900F900F908091D70180FF04C083E010
:1014700093E00E945707809201010E941309219670
:101480000F5F1F4FCE30D10509F051CF8091010180
:101490008823B9F0815080930101882339F0EFE966
:1014A000FFE03197F1F700C000000BC0ECE4F1E081
:1014B000D7018D917D018193BCE4EB16B1E0FB0671
:1014C000B9F787E298E0892BC1F00E94270815C080
:1014D00083E10E94F8088093000181119FCF81E48D
:1014E0000E94CE0880930001811198CF0E940909C3
:1014F000782E709494CF80E095CF81E0DF91CF91EA
:101500001F910F91FF90EF90DF90CF90BF90AF9021
:101510009F908F907F900895E82FF0E0E45BFE4F5E
:1015200080810895CF92DF92EF92FF920F931F93E5
:10153000CF93DF938CEE92E00E9457078CE4E82E65
:1015400081E0F82EC0E0D0E097EEC92E92E0D92ECF
:101550000EED12E0DF93CF93DF92CF920E94F0075F
:1015600084EE92E00E945707F70181917F0190E09D
:101570000E943A219F938F931F930F930E94F0072D
:101580008CED92E00E94570721968DB79EB7089682
:101590000FB6F8949EBF0FBE8DBFCE30D105D1F6E9
:1015A000DF91CF911F910F91FF90EF90DF90CF903F
:1015B00008958B3B910580F4883A910548F5853A6A
:1015C0009105D8F48430910508F0B2C0019709F074
:1015D0006EC081E090E00895803E910508F467C0F8
:1015E000883E910508F4A4C09C01205F3109203198
:1015F000310508F05CC090650895853A910509F4BD
:1016000059C0863A910509F058C082E890E40895DF
:10161000883A910509F454C0893A910509F453C0F8
:101620008A3A910509F452C08B3A910509F451C0E8
:101630008C3A910509F450C08D3A910509F44FC0D8
:10164000803B910509F44EC08E3A910509F44DC0D6
:101650008F3A910509F44CC0813B910509F44BC0C8
:10166000823B910509F44AC0833B910509F449C0C6
:10167000843B910509F448C0853B910509F447C0B6
:10168000863B910509F446C0873B910509F445C0A6
:10169000883B910509F444C0893B910509F443C096
:1016A0008A3B910509F442C080E094E4089580E00B
:1016B00090E0089581E890E4089583E890E4089527
:1016C00082EE94E4089589EE94E408958AEE94E419
:1016D000089585EB94E4089586EB94E4089587EBF0
:1016E00094E408958CEC94E408958DEC94E40895CA
:1016F00083E895E408958AE895E4089582E995E4FD
:10170000089584E995E4089581E296E4089583E2DA
:1017100096E4089584E296E4089585E296E40895B7
:1017200086E296E4089587E296E408958AE296E4D4
:101730000895089524E5829FC0011124FC0126E04C
:10174000729FE00DF11D1124E60FF11DEE0FFF1F3A
:10175000EC51FF4F859194910895880F991FFC01DA
:10176000E05AF040859194910895880F991FFC01EB
:10177000E052FF4F85919491089524E5829FC00126
:101780001124FC0146E0749FE00DF11D1124E60FC9
:10179000F11DEE0FFF1FEC51FF4F859194919C01BD
:1017A0003A9521154FE1340708F429C13F5121151D
:1017B000304120F49F700E94B50B08959C01305376
:1017C0002115304118F49927906C0895811520E572
:1017D000920769F40E94A21A4FEF84E39CE0415003
:1017E00080409040E1F700C000000C94F821813067
:1017F00020E5920751F48CE593E00E945707809111
:10180000D70181608093D70108959C01305521153F
:10181000304108F05CC0292F33272F703327213047
:101820003105E9F4AC0164E0440F551F6A95E1F716
:1018300044275370BC016370772702C0220F331F07
:101840006A95E2F73C68242B352B73E0880F991FCB
:101850007A95E1F780769927822B932B0895223091
:10186000310529F4982F8827816F906A08952330D5
:101870003105A1F4AC0133E0440F551F3A95E1F76F
:10188000407E57708370992721E030E002C0220F1C
:10189000331F8A95E2F7C9019C6816C024303105D0
:1018A00031F5AC0123E0440F551F2A95E1F7407E46
:1018B00057708370992721E030E002C0220F331F58
:1018C0008A95E2F7C9019A68842B952B08959C01AB
:1018D00030572115304118F49F70906208959C0193
:1018E00030582115304118F49F70906A0895803E59
:1018F0009105E0F4803C910558F58133910509F498
:101900006FC048F48932910509F463C08A329105A9
:1019100009F46DC072C089339105E9F082389105F0
:10192000D1F08533910509F44DC067C0833E910520
:1019300081F138F4803E9105B9F0823E9105D9F0ED
:101940005CC0863E910561F1873E9105A1F155C0CD
:101950000E94AD0B08952091E90120FD02C021FFF6
:101960004CC080EE90E049C08091E90180FFF9CF42
:1019700089E390E042C08091E90182FF0EC080912E
:10198000E90184FF03C080E090E037C083EE90E07F
:1019900034C08091E90182FFF2CF82EE90E02DC049
:1019A0008091E90183FF0BC08091E90184FDEBCFB9
:1019B00087EE90E022C08091E90183FFF5CF86EEAB
:1019C00090E01BC08091E90185FF07C089E290E0AB
:1019D00014C08091E90185FFF9CF85E390E00DC047
:1019E0008091E90186FF07C08AE290E006C08091FD
:1019F000E90186FFF9CF81E390E00E94D90A0895BA
:101A0000089580916D0108959FB7F89410925C013C
:101A10009FBF9091EF01943009F057C09091E90079
:101A20009F703091EC00232F217030FD20E8922B25
:101A300024E02093E9002091EB0020FF43C0209197
:101A4000EE0027FF3FC020915A01222321F0209170
:101A5000E80025FF37C010925A0126E03091E800D7
:101A600035FD15C03091EF01343061F53091EB0058
:101A700035FD28C0215021F481E080935A0122C015
:101A8000EFE9FFE03197F1F700C00000E7CF809366
:101A9000F1008091E80085FD0AC08091E80080FF98
:101AA000FCCF8091E8008E778093E80006C08FB766
:101AB000F89421E020935C018FBF9F709093E90020
:101AC00080E008959F709093E9008FEF0895CF9381
:101AD000DF9300D01F92CDB7DEB79C018091EF015C
:101AE000843019F593E099833B832A839093E9002E
:101AF0008FEF9091E800815095FD06C095ED9A9585
:101B0000F1F700008111F5CF8091E80085FF0DC04D
:101B100040E050E063E070E0CE0101960E943A1090
:101B20008091E8008E778093E8000F900F900F90DF
:101B3000DF91CF910895CF93DF9300D01F92CDB75F
:101B4000DEB72091EF01243021F522E029839B8329
:101B50008A8383E08093E9008FEF9091E8008150C1
:101B600095FD06C095ED9A95F1F700008111F5CF2E
:101B70008091E80085FF0DC040E050E063E070E038
:101B8000CE0101960E943A108091E8008E778093F2
:101B9000E8000F900F900F90DF91CF9108959C0176
:101BA0008091EF018430F9F482E08093E9009FEFA7
:101BB0008091E800915085FD06C085ED8A95F1F78A
:101BC00000009111F5CF8091E80085FF0CC040E046
:101BD00050E065E070E0C9010E943A108091E80091
:101BE0008E778093E8000895CF93DF93EC01809186
:101BF000EF01843009F047C080910C018823E1F0A7
:101C000080910D018823C1F085E08093E9008FEF7A
:101C10009091E800815095FD06C095E19A95F1F705
:101C200000008111F5CF8091E80085FF2CC040E0D5
:101C300050E060E170E017C081E08093E9008FEF31
:101C40009091E800815095FD06C095ED9A95F1F7C9
:101C500000008111F5CF8091E80085FF14C040E0BD
:101C600050E068E070E0CE010E943A108091E800F8
:101C70008E778093E80080E1FE01ADE5B1E0019050
:101C80000D928A95E1F7DF91CF91089583E993E072
:101C90000E9457078091EE01811109C00E94CB116B
:101CA0000E9428128091E20084608093E2000895EF
:101CB0008FE893E00E9457071092EE0108958BE899
:101CC00093E00C94570787E893E00E9457070C9421
:101CD000C72B83E893E00E9457070E9492210E943D
:101CE000CD2B0E94D2140C94000D20915B012F5F2C
:101CF000822F62E30E944A2D992319F020935B0101
:101D0000089510925B0180915C01882371F18091AC
:101D1000EF01843041F58091E9008F702091EC0053
:101D2000922F917020FD90E8892B94E09093E90028
:101D30009091EB0090FF14C09091EE0097FF10C0BF
:101D40009091E80095FF03C01092F100F9CF9091B7
:101D5000E80090FF05C09091E8009E779093E8001E
:101D60008F708093E90010925C01089542E061EC6D
:101D700081E00E94441142E061EC82E00E94441143
:101D800042E061EC83E00E94441142E261EC84E0B5
:101D90000E94441142E161EC85E00C944411809171
:101DA000F101833009F455C030F4813071F0823094
:101DB00009F48EC008958A3009F47AC08B3009F492
:101DC00060C0893009F09CC020C08091F001813A48
:101DD00009F096C08091E800877F8093E8008091A9
:101DE000F4019091F501892B21F460E18DE591E0FA
:101DF00003C060E080E090E070E00E948510809178
:101E0000E8008B778093E80008958091F00181329B
:101E100009F076C08091F4019091F501009719F0D6
:101E2000049709F06DC08091E800877F8093E800F7
:101E30008091E80082FD05C08091EF018111F8CF0B
:101E40005FC08091F10080936D018091E8008B77F5
:101E500053C08091F001813A09F052C08091F401A1
:101E60009091F501892B09F04BC08091E800877FA4
:101E70008093E8008091E80080FFFCCF80910C0106
:101E800036C08091F0018132D9F58091F4019091B2
:101E9000F501892BA9F58091E800877F8093E80000
:101EA0000E9479118091F20180930C010C94A21A86
:101EB0008091F001813221F58091E800877F809345
:101EC000E8000E9479118091F30180936E010895DA
:101ED0008091F001813AA1F48091E800877F80939E
:101EE000E8008091E80080FFFCCF80916E01809334
:101EF000F1008091E8008E778093E8000C947911CE
:101F0000089584B7877F84BF0FB6F894A895809111
:101F10006000886180936000109260000FBE90E0C6
:101F200080E80FB6F89480936100909361000FBE33
:101F30000E945E150E94CB110E9428128091E2003F
:101F400084608093E20084E09DE00E94D320789436
:101F50000E94B2140E94601582E091E00E94CD14AC
:101F60000E94B52B82E793E00E9457078091EF0112
:101F7000853089F48EE693E00E9457070E94542131
:101F80008091ED01882391F30E947E21882371F3D3
:101F90000E942410EBCF0E948E15E8CF292F332703
:101FA00023303105C9F060F42130310581F0223051
:101FB000310509F041C08DE890E02BEC33E040C0E2
:101FC00021323105E1F02232310531F135C082E1B3
:101FD00090E028E534E034C099278130910549F03C
:101FE00028F0029749F5E7E9F3E005C0E7ECF3E0F4
:101FF00002C0EFEAF3E0849190E09F0121C06530D8
:10200000D8F4E62FF0E0EE0FFF1FEB5DFE4F2081CE
:10201000318189E090E014C0653070F470E0FB011C
:10202000EE0FFF1FE55EFE4F20813181FB01EA5E6E
:10203000FE4F808190E004C080E090E020E030E03E
:10204000FA0131832083089580E189BD82E189BD51
:1020500009B400FEFDCF8091D8008F7D8093D80019
:102060008091E00082608093E0008091E00081FD3B
:10207000FCCF0895CF92DF92EF92FF920F931F93C0
:10208000CF93DF93EC018B016A010E9498118111BB
:1020900033C0C114D10439F0F60180819181081B4D
:1020A000190BC80FD91FE12CF12C0115110519F1DD
:1020B0008091E80085FD16C08091E8008E778093BE
:1020C000E800C114D10449F0F60180819181E80E45
:1020D000F91EF182E08285E00FC00E9498118823EA
:1020E00021F30AC089918093F10001501109FFEF9B
:1020F000EF1AFF0ADACF80E0DF91CF911F910F91A5
:10210000FF90EF90DF90CF9008952091F6013091ED
:10211000F7012617370748F06115710539F420914A
:10212000E8002E772093E80001C0B901FC0120E00F
:102130006115710579F18091EF018823F1F1853006
:10214000F1F18091E80083FD3CC08091E80082FDC0
:102150002EC08091E80080FFEBCF2091F3008091AA
:10216000F20090E0922B6115710551F088309105D5
:1021700038F421912093F100615071090196F3CF59
:1021800021E0089709F020E08091E8008E778093A5
:10219000E800CECF2111CFCF0AC08091EF01882374
:1021A00061F0853061F08091E80083FD0AC0809184
:1021B000E80082FFF2CF80E0089582E0089583E096
:1021C000089581E008952091F6013091F7012617D6
:1021D000370748F06115710539F42091E8002E7732
:1021E0002093E80001C0B901FC0120E061157105F0
:1021F00091F18091EF01882309F440C0853009F402
:102200003FC08091E80083FD3DC08091E80082FDE1
:102210002FC08091E80080FFE9CF2091F3008091EA
:10222000F20090E0922B6115710559F0883091050C
:1022300040F424912093F100319661507109019688
:10224000F2CF21E0089709F020E08091E8008E7736
:102250008093E800CBCF2111CCCF0AC08091EF0151
:10226000882361F0853061F08091E80083FD0AC029
:102270008091E80082FFF2CF80E0089582E0089527
:1022800083E0089581E00895982F973068F5909342
:10229000E900981739F07091EC002091ED00509111
:1022A000F00003C0242F762F50E021FD02C09F5F75
:1022B000ECCF3091EB003E7F3093EB003091ED009E
:1022C0003D7F3093ED003091EB0031603093EB00B7
:1022D0007093EC002093ED005093F0002091EE00FD
:1022E00027FDE5CF80E008958F708093E90081E0BD
:1022F00008958091F00187FF11C08091E80082FD70
:1023000005C08091EF018111F8CF11C08091E800E4
:102310008B770BC08091EF01882349F08091E80012
:1023200080FFF8CF8091E8008E778093E8000895D1
:102330002091E4003091E50095E64091EC00842F77
:10234000817040FF23C08091E80080FD1DC0809116
:10235000EF01882399F0853099F08091EB0085FD9D
:1023600011C04091E4005091E5002417350729F38E
:10237000915011F09A01E1CF84E0089582E0089530
:1023800083E0089581E0089580E008954091E80099
:1023900042FFDDCF08950E9439120E944112E0EE03
:1023A000F0E0808181608083E8EDF0E080818F77CC
:1023B000808319BCA7EDB0E08C918E7F8C938081D7
:1023C0008F7E80831092EE0108950F931F93CF9319
:1023D000DF930E9439120E944112C8EDD0E088813B
:1023E0008F77888388818068888388818F7D8883C0
:1023F00019BC1092EF011092EB011092ED011092B6
:10240000EC0100EE10E0F80180818B7F80838881F1
:102410008160888342E060E080E00E944411E1EE48
:10242000F0E080818E7F8083E2EEF0E08081816049
:102430008083808188608083F80180818E7F8083A3
:10244000888180618883DF91CF911F910F910895DA
:10245000E8EDF0E080818F7E8083E7EDF0E0808121
:102460008160808384E082BF81E08093EE010C94E0
:10247000E511E8EDF0E080818E7F80831092E2002C
:1024800008951092DA001092E10008951F920F92C1
:102490000FB60F9211242F933F934F935F936F9337
:1024A0007F938F939F93AF93BF93EF93FF9380910D
:1024B000E10082FF0BC08091E20082FF07C08091A3
:1024C000E1008B7F8093E1000E94750E8091DA001D
:1024D00080FF1FC08091D80080FF1BC08091DA0070
:1024E0008E7F8093DA008091D90080FF0DC080E15B
:1024F00089BD82E189BD09B400FEFDCF81E08093F2
:10250000EF010E94460E05C019BC1092EF010E9417
:10251000580E8091E10080FF19C08091E20080FF99
:1025200015C08091E2008E7F8093E2008091E200EE
:1025300080618093E2008091D80080628093D8000F
:1025400019BC85E08093EF010E94630E8091E10049
:1025500084FF30C08091E20084FF2CC080E189BDFF
:1025600082E189BD09B400FEFDCF8091D8008F7D46
:102570008093D8008091E1008F7E8093E10080916C
:10258000E2008F7E8093E2008091E2008160809380
:10259000E2008091EB01882311F084E007C0809174
:1025A000E30087FD02C081E001C083E08093EF017A
:1025B0000E94690E8091E10083FF29C08091E200B2
:1025C00083FF25C08091E100877F8093E10082E056
:1025D0008093EF011092EB018091E1008E7F809358
:1025E000E1008091E2008E7F8093E2008091E20022
:1025F00080618093E20042E060E080E00E9444114C
:102600008091F00088608093F0000E945F0EFF913F
:10261000EF91BF91AF919F918F917F916F915F915A
:102620004F913F912F910F900FBE0F901F901895D3
:102630001F920F920FB60F9211242F933F934F9337
:102640005F936F937F938F939F93AF93BF93CF933A
:10265000DF93EF93FF93C091E900CF708091EC007E
:10266000D82FD17080FDD0E81092E9008091F00061
:10267000877F8093F00078940E945C131092E900A9
:102680008091F00088608093F000CD2BCF70C093D4
:10269000E900FF91EF91DF91CF91BF91AF919F91B1
:1026A0008F917F916F915F914F913F912F910F90FB
:1026B0000FBE0F901F9018951F93CF93DF93CDB748
:1026C000DEB7AA970FB6F894DEBF0FBECDBFE0EF1E
:1026D000F1E08091F100819321E0E83FF207C9F732
:1026E0000E94CF0E8091E80083FF24C18091F00109
:1026F0009091F101492F50E04A30510508F01AC17C
:10270000FA01EA5AFF4F0C946A2D803881F0823822
:1027100009F010C18091F4018F708093E9008091DD
:10272000EB0085FB882780F91092E90006C08091B4
:10273000EC019091ED01911182609091E800977FFA
:102740009093E8008093F1001092F100C8C0282F08
:102750002D7F09F0EFC0882319F0823061F0EAC0C4
:102760008091F201813009F0E5C0933009F080E0FA
:102770008093ED012BC08091F201811127C08091DF
:10278000F4018F7009F4D6C08093E9002091EB002A
:1027900020FF1CC0933021F48091EB00806214C0B4
:1027A0009091EB0090619093EB0021E030E0A90163
:1027B00002C0440F551F8A95E2F74093EA00109239
:1027C000EA008091EB0088608093EB001092E900B2
:1027D0008091E800877F86C08111ACC01091F20122
:1027E0001F778091E3008078812B8093E3008091B4
:1027F000E800877F8093E8000E9479118091E800CB
:1028000080FFFCCF8091E30080688093E30011118A
:1028100002C082E001C083E08093EF018BC080584A
:10282000823008F087C08091F2019091F3018C3DD5
:1028300053E0950779F583E08A838AE289834FB76D
:10284000F894DE01139620E03EE051E2E32FF0E041
:1028500050935700E49120FF03C0E295EF703F5F73
:10286000EF708E2F90E0EA3010F0C79601C0C0964E
:102870008D939D932F5F243149F74FBF8091E800DE
:10288000877F8093E8006AE270E0CE0101960E94A3
:10289000851014C0AE014F5F5F4F6091F4010E943C
:1028A000CE0FBC01892B09F445C09091E800977FB9
:1028B0009093E80089819A810E94E3108091E8005A
:1028C0008B778093E80036C08038A1F58091E800CE
:1028D000877F8093E8008091EB018093F1008091E5
:1028E000E8008E778093E8000E94791123C081115F
:1028F00021C08091F2019091F30199270297D4F4BD
:102900008091E800877F8093E8008091F2018093B6
:10291000EB010E9479118091EB01811106C0809139
:10292000E30087FD02C081E001C084E08093EF01F5
:102930000E94B60E8091E80083FF0AC08091E800F3
:10294000877F8093E8008091EB0080628093EB00AA
:10295000AA960FB6F894DEBF0FBECDBFDF91CF9120
:102960001F910895CF938091EF018823A1F0C0912A
:10297000E900CF709091EC00892F817090FD80E884
:10298000C82B1092E9008091E80083FD0E945C133F
:10299000CF70C093E900CF91089590937401809314
:1029A00073010895E0917301F0917401309721F063
:1029B0000190F081E02D099480E00895EF92FF925C
:1029C0001F93CF93DF93F82E192FE0917301F091AD
:1029D00074013097A9F10280F381E02D099580916F
:1029E000D70182FF2DC080FF04C08DE895E00E94D2
:1029F0005707CF2DD12F10E187E8E82E85E0F82E7C
:102A00008091D70180FF0BC088811F928F93FF9226
:102A1000EF920E94F0070F900F900F900F901150BF
:102A200021961111EDCF8091D70180FF09C085E873
:102A300095E0DF91CF911F91FF90EF900C94570795
:102A4000DF91CF911F91FF90EF900895E091730176
:102A5000F0917401309721F00480F581E02D099404
:102A6000089520917101309172012817390771F092
:102A70009093720180937101E0917301F091740160
:102A8000309721F00680F781E02D09940895209178
:102A90006F01309170012817390771F09093700120
:102AA00080936F01E0917301F0917401309721F0F0
:102AB0000084F185E02D0994089508950C945D1526
:102AC0000E9494210E943B090C945A22CF93C82F54
:102AD0008091D70182FF1EC080FF04C086EA95E086
:102AE0000E9457078091D70180FF0CC01F92CF939F
:102AF00081EA95E09F938F930E94F0070F900F90CB
:102B00000F900F908091D70180FF04C08FE995E06E
:102B10000E9457078C2FCF910C94000DCF92DF921B
:102B2000EF92FF920F931F93CF93DF93CDB7DEB752
:102B30002B970FB6F894DEBF0FBECDBF0E94580989
:102B400086E7C82E81E0D82E00E010E0E02E802F2E
:102B50000E948C0AF60141916F01F82EF426B1F41F
:102B60000F5F1F4F0E30110589F78FEF89838A831E
:102B70001B820E949D218160782F9D838C834981D7
:102B80005A816B818D810E94311640C09091D7018E
:102B900091FF04C08B870E94920A8B8520E030E071
:102BA0004F2D50E0922FBA01022E02C07595679505
:102BB0000A94E2F760FF24C02E83EF8221E030E028
:102BC000690102C0CC0CDD1C9A95E2F790E08C21E3
:102BD0009D21892B09F420E028870E949D21816096
:102BE000782F9A8789874E815F8168858A850E94C0
:102BF0003116F801EA58FE4F8081C826C08206C00F
:102C00002F5F3F4F2630310569F6AACF0E94CB25B2
:102C10000E94D214909175018917A1F00E94D214DC
:102C2000809375012B960FB6F894DEBF0FBECDBF13
:102C3000DF91CF911F910F91FF90EF90DF90CF9098
:102C40000C9466152B960FB6F894DEBF0FBECDBF61
:102C5000DF91CF911F910F91FF90EF90DF90CF9078
:102C60000895CF93DF93CDB7DEB72B970FB6F894C7
:102C7000DEBF0FBECDBF4F83588769877A878B87AA
:102C8000DE01119686E0FD0111928A95E9F785E053
:102C9000FE01379601900D928A95E1F749815A819C
:102CA0006B817C818D819E810E94361D2B960FB693
:102CB000F894DEBF0FBECDBFDF91CF910895CF93C3
:102CC000C82F882309F4C1C0823859F40E94D21455
:102CD00081FDBBC089E30E94D31F0E94AD2089E320
:102CE0000CC0833879F40E94D21480FDAEC083E515
:102CF0000E94D31F0E94AD2083E50E942320CF9124
:102D00000C94AD20843859F40E94D21482FD9DC0E9
:102D100087E40E94D31F0E94AD2087E4EECF8CEFA2
:102D20008C0F813A48F48C2F0E945D2A81118DC04E
:102D30008C2F0E94D31FE3CF80E28C0F883048F4A1
:102D4000C77081E001C0880FCA95EAF70E9476201B
:102D5000D6CF8BE58C0F833078F4C53A29F0C63A8C
:102D600031F083E890E005C081E890E002C082E89D
:102D700090E0CF910C94311588E58C0F833108F0E9
:102D800064C0C83A39F1C93A41F1CA3A49F1CB3A7B
:102D900051F1CC3A59F1CD3A61F1C03B69F1CE3AEB
:102DA00071F1CF3A79F1C13B81F1C23B89F1C33B6B
:102DB00091F1C43B99F1C53BA1F1C63BA9F1C73BD9
:102DC000B1F1C83BB9F1C93BC1F1CA3BC9F180E0DF
:102DD00090E038C082EE90E035C089EE90E032C0DD
:102DE0008AEE90E02FC085EB90E02CC086EB90E05F
:102DF00029C087EB90E026C08CEC90E023C08DECDE
:102E000090E020C083E891E01DC08AE891E01AC0FC
:102E100082E991E017C084E991E014C081E292E078
:102E200011C083E292E00EC084E292E00BC085E222
:102E300092E008C086E292E005C087E292E002C01C
:102E40008AE292E0CF910C944715CF9108958823A0
:102E500009F44BC0823859F40E94D21481FF45C056
:102E600089E30E94D31F0E94AD2089E30CC0833800
:102E700071F40E94D21480FF38C083E50E94D31FF2
:102E80000E94AD2083E50E9423200C94AD2084385D
:102E900059F40E94D21482FF28C087E40E94D31FF5
:102EA0000E94AD2087E4EFCF9CEF980F913A58F342
:102EB00090E2980F983050F4877091E001C0990F1C
:102EC0008A95EAF7892F0E947C20DFCF9BE5980F37
:102ED000933020F480E090E00C943115885A8331CF
:102EE00020F480E090E00C9447150895882321F0A9
:102EF0000E9476200C94AD200895882321F00E9432
:102F00007C200C94AD200895BF92CF92DF92EF9277
:102F1000FF920F931F93CF93DF9300D000D000D088
:102F2000CDB7DEB77C0185E0F701DE011196019097
:102F30000D928A95E1F7F70183819481892B09F439
:102F4000DFC2908181818F3F19F49F3F09F4D8C27D
:102F5000F7010281258122952F7099838A838981C7
:102F60009A812E830E94921F182FB92E0E94911FC2
:102F70000E94581EEB2DE295EF704E2F50E0FA01A3
:102F8000E05AFF4F2E810C946A2D8B2D807F9B2D54
:102F90009F70F92E882319F0F29480EFF822002315
:102FA00049F0FF2009F459C28F2D0E9486200E940B
:102FB000AD2053C2812F0E942717FF2009F4A0C221
:102FC0008F2D0E948C2026960FB6F894DEBF0FBE80
:102FD000CDBFDF91CF911F910F91FF90EF90DF90C8
:102FE000CF90BF900C94AD203B2D307F8B2D8F70F8
:102FF000303211F08295807F112319F0113021F1C8
:103000002DC00023B9F0222309F491C1213009F029
:103010008EC126960FB6F894DEBF0FBECDBFDF91EE
:10302000CF911F910F91FF90EF90DF90CF90BF90C5
:103030000C949620222319F0213009F461C28E836A
:103040000E9499208E8187C1002321F0263008F04C
:1030500057C26DC1253008F053C27DC1002321F055
:10306000222309F464C1F9C1222309F474C10AC2FC
:103070008B2D86958695837019F08130D1F040C2F2
:10308000002321F0812F9B2D937002C080E090E0FF
:1030900026960FB6F894DEBF0FBECDBFDF91CF915D
:1030A0001F910F91FF90EF90DF90CF90BF900C9405
:1030B0003115002321F0812F9B2D937002C080E0F9
:1030C00090E026960FB6F894DEBF0FBECDBFDF911D
:1030D000CF911F910F91FF90EF90DF90CF90BF9015
:1030E0000C944715812F002319F00E94512402C02F
:1030F0000E94B92426960FB6F894DEBF0FBECDBF4E
:10310000DF91CF911F910F91FF90EF90DF90CF90C3
:10311000BF900C943E258B2D837009F075C0011172
:10312000EFC1812F829586958770880F880F912F28
:103130009F70C92ED12CE12CF12C082E04C0CC0C90
:10314000DD1CEE1CFF1C0A94D2F714FF12C00FE026
:1031500010E020E030E004C0000F111F221F331FD9
:103160008A95D2F7C901B8016095709580959095C0
:1031700003C060E070E0CB014B2D4695469543704F
:103180004230C1F060F56C297D298E299F2941309C
:1031900051F126960FB6F894DEBF0FBECDBFDF917A
:1031A000CF911F910F91FF90EF90DF90CF90BF9044
:1031B0000C947F1E6C297D298E299F2926960FB697
:1031C000F894DEBF0FBECDBFDF91CF911F910F915D
:1031D000FF90EF90DF90CF90BF900C949B1E0E94C9
:1031E0007F1EC701B60126960FB6F894DEBF0FBE4C
:1031F000CDBFDF91CF911F910F91FF90EF90DF90A6
:10320000CF90BF900C94631E002319F08B2D81701A
:1032100001C08695882309F473C1812F8295869514
:103220008770880F880F912F9F70C92ED12CE12CA9
:10323000F12C082E04C0CC0CDD1CEE1CFF1C0A94E3
:10324000D2F714FF12C00FE010E020E030E004C01D
:10325000000F111F221F331F8A95D2F7C901B80131
:10326000609570958095909503C060E070E0CB010B
:103270004B2D4695469543704230C1F060F56C2960
:103280007D298E299F29413051F126960FB6F89459
:10329000DEBF0FBECDBFDF91CF911F910F91FF9089
:1032A000EF90DF90CF90BF900C94591F6C297D292F
:1032B0008E299F2926960FB6F894DEBF0FBECDBF8C
:1032C000DF91CF911F910F91FF90EF90DF90CF9002
:1032D000BF900C94751F0E94591FC701B601269616
:1032E0000FB6F894DEBF0FBECDBFDF91CF911F9117
:1032F0000F91FF90EF90DF90CF90BF900C943D1F07
:10330000103FD1F118F4103E50F4A2C0123F09F45E
:1033100064C008F44DC0133F09F474C099C01F7015
:103320008B2D8F710023A1F00E94D61E812F26962F
:103330000FB6F894DEBF0FBECDBFDF91CF911F91C6
:103340000F91FF90EF90DF90CF90BF900C94761785
:103350000E94F71E812F26960FB6F894DEBF0FBE8F
:10336000CDBFDF91CF911F910F91FF90EF90DF9034
:10337000CF90BF900C947D170023B1F0253008F05A
:10338000BFC08B2D8F7126960FB6F894DEBF0FBE8F
:10339000CDBFDF91CF911F910F91FF90EF90DF9004
:1033A000CF90BF900C941C1F263008F0A9C0E9CF25
:1033B0000023A9F08B2D8F7126960FB6F894DEBFEF
:1033C0000FBECDBFDF91CF911F910F91FF90EF9076
:1033D000DF90CF90BF900C94D61E002359F38B2D15
:1033E0008F7126960FB6F894DEBF0FBECDBFDF916A
:1033F000CF911F910F91FF90EF90DF90CF90BF90F2
:103400000C94F71E002399F08B2D8F7126960FB622
:10341000F894DEBF0FBECDBFDF91CF911F910F910A
:10342000FF90EF90DF90CF90BF900C94C11E269636
:103430000FB6F894DEBF0FBECDBFDF91CF911F91C5
:103440000F91FF90EF90DF90CF90BF900C94B71E3C
:103450000023A9F0222309F4ADCF812F26960FB6C1
:10346000F894DEBF0FBECDBFDF91CF911F910F91BA
:10347000FF90EF90DF90CF90BF900C945F162223C7
:1034800009F4ADCF812F26960FB6F894DEBF0FBE9C
:10349000CDBFDF91CF911F910F91FF90EF90DF9003
:1034A000CF90BF900C9427174B2D4F70612FC70101
:1034B0000E94F90726960FB6F894DEBF0FBECDBF67
:1034C000DF91CF911F910F91FF90EF90DF90CF9000
:1034D000BF900C94DB1D4B2D4F70612FC7012696BA
:1034E0000FB6F894DEBF0FBECDBFDF91CF911F9115
:1034F0000F91FF90EF90DF90CF90BF900C94990BBD
:1035000026960FB6F894DEBF0FBECDBFDF91CF91E8
:103510001F910F91FF90EF90DF90CF90BF90089593
:103520000E9493200E9468200E94AD200E94702675
:103530000E943E2580E090E00E94311580E090E0FE
:103540000C9447150E9483200C94901A0E94921F9D
:10355000292F22952F702C3030F42A3048F4225035
:10356000223078F405C02C3041F02F3031F009C002
:10357000803E48F0803F29F406C093FB882780F9FD
:10358000089580E0089581E00895CF93DF9300D0FF
:1035900000D01F92CDB7DEB70F900F900F900F9015
:1035A0000F90DF91CF910895CF93DF9300D000D09B
:1035B00000D0CDB7DEB726960FB6F894DEBF0FBEAB
:1035C000CDBFDF91CF9108951F93CF93DF93C0912B
:1035D000840116E080918501C81799F0D0E01C9F06
:1035E000F0011D9FF00D1124EA57FE4F40815181DB
:1035F00062817381848195810E94D41A2196C7705B
:10360000E9CFDF91CF911F9108954091B60150917C
:10361000B7016091B8017091B9018091BA019091A0
:10362000BB010C94D41A8091BB0182958F7009F074
:1036300054C08091B801882309F44FC0809184015F
:10364000A09185014091B9015091BA016091B601F4
:103650007091B701B6E08A1709F43FC090E04115B8
:103660005105C1F17F3F11F46F3FA1F1B89FF00107
:10367000B99FF00D1124EA57FE4F218127132AC06C
:103680002081261327C02281211124C02381348167
:103690002417350710F421503109241B350B283C21
:1036A0003105C0F42091BB012F7020612093BB0134
:1036B00026E0289FF001299FF00D1124E557FE4FC9
:1036C00080818F708061808386EB91E00E948417F7
:1036D0000C94E41A01968770BECF0895CF92DF92C2
:1036E000EF92FF920F931F93CF93DF93CDB7DEB787
:1036F00062970FB6F894DEBF0FBECDBF8C0185E098
:10370000F801DE011D9601900D928A95E1F7D8012E
:103710004C9111965C91119712966C918091B90120
:103720009091BA01009709F475C13091B60170917A
:10373000B7017F3F19F43F3F09F46CC1F801C38022
:10374000D480E090B801EE2009F4BEC02091BB0106
:10375000C816D90628F0D601A81BB90BCD0104C0A4
:10376000809590958C0D9D1DFF24F394883C9105C8
:1037700078F0F12C207F09F0C4C07C2DD98AC88A4A
:1037800089890E94C51A86EB91E00E948417AFC018
:10379000822F807F09F045C0571313C0431311C017
:1037A00061110FC02F7020612093BB010E94051B87
:1037B00086EB91E00E9484178091BB01F80185831C
:1037C0002EC0CD2819F15F3F11F44F3FF9F0F62ECE
:1037D00061111CC0809184012091850136E082171F
:1037E00009F45BC090E0389FF001399FF00D11247F
:1037F000EA57FE4F7181571306C07081471303C00B
:103800007281711103C001968770E9CFF62E66238D
:1038100009F41CC18091BB0181608093BB01F12C34
:1038200015C1571309C0431307C0611105C080912A
:10383000BB01F8018583C8C04D875E878D859E8555
:103840006A8B0E94A61A6A898823D1F16623C1F186
:103850002091BB01822F82958F7090E0029774F0C7
:103860008091B6019091B70198878F831986DB8686
:10387000CA862C87CE0107960E94841786E0F8013D
:10388000A6EBB1E001900D928A95E1F70E94131B1F
:103890000E94051BFF24F394D9C04D875E878D8558
:1038A0009E850E94921F292F22952F70223008F0AA
:1038B000C1C09F7009F0BBC0805E883008F4C6C0EC
:1038C000C8010E948417E6CFC816D90608F453C071
:1038D000F601E81BF90BCF01883C910508F450C0B4
:1038E000F12C7C2DD98AC88A89890E94C51AE6EBF9
:1038F000F1E086E0DF011D928A95E9F70E94051B41
:10390000A5C0571314C0431312C0611110C0809199
:10391000BB01F8018583C8010E94841786E0E6EBAD
:10392000F1E0DF011D928A95E9F7FE2C8FC04D87EB
:103930005E878D859E856A8B0E94A61A6A89882378
:1039400009F4BECF662309F4BBCF2091BB01822FBF
:1039500082958F7090E002970CF490CF8091B60121
:103960009091B7019A8389831B82DD82CC822E835A
:10397000CE01019681CF809590958C0D9D1DACCF89
:10398000F62E662309F49CCF571333C0431331C07E
:103990002091BB0120FD24C0822F82958F70482F7B
:1039A00050E041155105E1F0D80115962C9315977B
:1039B0004F30510549F08F5F982F9295907F822F5D
:1039C0008F70892B15968C93C8010E94841786E00E
:1039D000F801A6EBB1E001900D928A95E1F78ECF48
:1039E00086E0F801A6EBB1E001900D928A95E1F72F
:1039F0002DC04D875E878D859E850E94A61A8111F8
:103A00003DCF8091BB0181608093BB01C8010E94C2
:103A100084171CC0662309F453CF4D875E878D85BC
:103A20009E850E94A61A882309F44ACF27CF8111C8
:103A300043CF0CC0243008F043CF9F7009F43CCF33
:103A4000D80115969C91907F09F036CF8F2D629604
:103A50000FB6F894DEBF0FBECDBFDF91CF911F919F
:103A60000F91FF90EF90DF90CF9008951F93CF9329
:103A7000DF93CDB7DEB72C970FB6F894DEBF0FBE3D
:103A8000CDBF4F83588769877A878B879C87CE0104
:103A900007960E946E1B882371F08A859B85892B6F
:103AA00009F441C088858F3F09F065C08F818F3F41
:103AB00009F061C038C086E0FE013796DE0111963C
:103AC00001900D928A95E1F76A857B8561157105F4
:103AD00051F1FF81E885EF3F11F4FF3F21F1209183
:103AE000850130E0C90101968770992740918401D2
:103AF00050E08417950709F447C0F983EA837D8372
:103B00006C8396E0929FD001939FB00D1124AA5729
:103B1000BE4FFE01319601900D929A95E1F7809388
:103B200085010E94E41A16E080918401909185013C
:103B30008917B9F1189FC00111248A579E4F0E941E
:103B40006E1B882371F1E09184011E9FF001112406
:103B5000EA57FE4F40815181628173818481958152
:103B60000E94D41A8091840190E001968770992771
:103B700080938401D9CF4F81588569857A858B855B
:103B80009C850E94D41ACFCF0E94A21A1092850160
:103B900010928401E6EBF1E086E0DF011D928A9548
:103BA000E9F72C960FB6F894DEBF0FBECDBFDF91BC
:103BB000CF911F910895EF92FF920F931F93CF9390
:103BC000DF938C01892B09F46CC0F12CEE24E39473
:103BD000E8012196F8018491843740F4843008F09C
:103BE00051C0813081F0823019F15BC0853709F412
:103BF00044C0A8F19CE7980F903708F052C08F7727
:103C00000E94271741C00E5F1F4FFE01849190E272
:103C1000980F983050F48770FE2D01C0FF0F8A95E1
:103C2000EAF78F2F0E94862014C00E945F162DC0D5
:103C30000E5F1F4FFE01849190E2980F983060F460
:103C40008770FE2D01C0FF0F8A95EAF78F2F0E9423
:103C50008C200E94AD2019C00E94271716C00E5F4D
:103C60001F4FFE01C491CC2381F08FE99FE00197A3
:103C7000F1F700C00000C150F6CF0E5F1F4FFE01EC
:103C8000F49003C00E945F168E018F2D882309F4E3
:103C90009FCFEFE9FFE03197F1F700C000008150BE
:103CA000F5CFDF91CF911F910F91FF90EF90089585
:103CB00008956093C0017093C1018093C2019093F5
:103CC000C3010C94901A0F931F930091C00110919F
:103CD000C1012091C2013091C301DC01CB01802BD5
:103CE000912BA22BB32B8093C0019093C101A09381
:103CF000C201B093C3011F910F910C94901A0F93BE
:103D00001F930091C0011091C1012091C201309117
:103D1000C301DC01CB0180239123A223B323809331
:103D2000C0019093C101A093C201B093C3011F9140
:103D30000F910C94901A0F931F930091C001109152
:103D4000C1012091C2013091C301DC01CB01802768
:103D50009127A227B3278093C0019093C101A0931C
:103D6000C201B093C3011F910F910C94901A10924D
:103D7000BC011092BD011092BE011092BF010C94C3
:103D8000901A41E050E060E070E004C0440F551F1D
:103D9000661F771F8A95D2F74093BC015093BD01EF
:103DA0006093BE017093BF010C94901A41E050E003
:103DB00060E070E004C0440F551F661F771F8A95AE
:103DC000D2F78091BC019091BD01A091BE01B0914C
:103DD000BF01482B592B6A2B7B2B4093BC0150937E
:103DE000BD016093BE017093BF010C94901A41E035
:103DF00050E060E070E004C0440F551F661F771F5D
:103E00008A95D2F740955095609570958091BC0148
:103E10009091BD01A091BE01B091BF0148235923EB
:103E20006A237B234093BC015093BD016093BE0184
:103E30007093BF010C94901A41E050E060E070E094
:103E400004C0440F551F661F771F8A95D2F78091D3
:103E5000BC019091BD01A091BE01B091BF01482766
:103E600059276A277B274093BC015093BD0160937B
:103E7000BE017093BF010C94901A0F931F93009191
:103E8000BC011091BD012091BE013091BF01DC0148
:103E9000CB01802B912BA22BB32B8093BC01909351
:103EA000BD01A093BE01B093BF011F910F910C946F
:103EB000901A0F931F930091BC011091BD012091A6
:103EC000BE013091BF01DC01CB0180239123A223ED
:103ED000B3238093BC019093BD01A093BE01B09326
:103EE000BF011F910F910C94901A0F931F93009193
:103EF000BC011091BD012091BE013091BF01DC01D8
:103F0000CB0180279127A227B3278093BC019093F0
:103F1000BD01A093BE01B093BF011F910F910C94FE
:103F2000901A0895CF92DF92EF92FF920F931F9312
:103F3000CF93DF938C01C090BC01D090BD01E09085
:103F4000BE01F090BF018091C0019091C101A0918C
:103F5000C201B091C301C82AD92AEA2AFB2ACFE1BB
:103F6000D0E0D701C6010C2E04C0B695A795979551
:103F700087950A94D2F780FF07C0B8018C2F0E9462
:103F8000BD0B8130910531F4219758F7B80180E0DD
:103F90000E94BD0BDF91CF911F910F91FF90EF9089
:103FA000DF90CF90089590910C01992379F1909131
:103FB0000D01992359F1982F9695969596959F30D6
:103FC000A0F4E0910E01F0910F01E90FF11D87704F
:103FD00021E030E0A90102C0440F551F8A95E2F7A5
:103FE000CA019181892B818308959091D70190FF17
:103FF00029C01F928F9387ED95E09F938F930E9426
:10400000F0070F900F900F900F90089520910E01E0
:1040100030910F01F90132969FEF40E051918517E1
:1040200089F09F3F19F4511101C0942F4F5F4E301A
:10403000A9F79F3F39F0F901E90FF11D97FDFA95B6
:1040400082830895089590910C01992381F19091B4
:104050000D01992361F1982F9695969596959F302D
:10406000A8F4E0910E01F0910F01E90FF11D8770A6
:1040700021E030E0A90102C0440F551F8A95E2F704
:10408000CA01809591818923818308959091D701F8
:1040900090FF1DC01F928F9389EB95E09F938F93A4
:1040A0000E94F0070F900F900F900F9008952091AD
:1040B0000E0130910F01F9013296205F3F4F908140
:1040C000891301C010823196E217F307C1F70895F2
:1040D00081E090E0E0910E01F0910F01E80FF91FEF
:1040E0001082019680319105A9F708959091D6012B
:1040F000892B8093D601089580959091D6018923CC
:104100008093D60108951092D60108959091D5011B
:10411000892B8093D501089580959091D5018923AD
:104120008093D50108951092D50108958093C4011C
:1041300008951092C401089580910E0190910F018D
:10414000FC0131969C01205F3F4F80E091919111DD
:104150008F5FE217F307D1F70895E0910E01F09118
:104160000F018091D6018083E0910E01F0910F0143
:1041700090818091D501892B80838091C40188230F
:1041800061F0E0910E01F0910F019081892B808305
:104190000E949C2081111092C40180910E01909187
:1041A0000F010C94DE1490933B0180933A01089523
:1041B000CF92DF92EF92FF926C01EE24FF24C114A4
:1041C000D104E104F10421F0C701B60120E101C0EE
:1041D00020E0C72ED82EE92EFF24C114D104E1041B
:1041E000F10419F0285FC701B6016B017C0154E0AE
:1041F000F694E794D794C7945A95D1F7C114D10493
:10420000E104F10419F02C5FC701B6016B017C01D8
:1042100042E0F694E794D794C7944A95D1F7C11435
:10422000D104E104F10419F02E5FC701B601DC01ED
:10423000CB01B695A79597958795892B8A2B8B2BC4
:1042400009F02F5F822FFF90EF90DF90CF900895BD
:104250008295982F937344E0949F900111248C7C55
:1042600086958695282B822F8575880F2A7A269524
:10427000822B08951F93CF93DF931F92CDB7DEB7A4
:1042800099830E942821182F9981892F0E94282123
:10429000212F30E0322F2227A901482BCA010F908D
:1042A000DF91CF911F9108958091EF01843011F13A
:1042B00020E488E190E00FB6F894A8958093600020
:1042C0000FBE2093600083B7817F846083BF83B774
:1042D000816083BF7894889583B78E7F83BF0FB644
:1042E000F894A89580916000886180936000109296
:1042F00060000FBE089508950C947B21CF930E9417
:104300007C210E9458090E947B21C0E08C2F0E94D2
:104310008C0A811104C0CF5FCE30C1F701C081E0AB
:10432000CF9108950C94A21A82E084BD93E095BDCC
:104330009AEF97BD80936E0008952FB7F8948091FF
:10434000D8019091D901A091DA01B091DB012FBF82
:104350000895CF92DF92EF92FF920F931F932FB7A2
:10436000F8944091D8015091D9016091DA0170918F
:10437000DB012FBF6A017B01EE24FF248C0120E0CA
:1043800030E0C016D106E206F30610F441505109A0
:104390009A01281B390BC9011F910F91FF90EF90D3
:1043A000DF90CF9008951F920F920FB60F921124B5
:1043B0008F939F93AF93BF938091D8019091D90130
:1043C000A091DA01B091DB010196A11DB11D80938E
:1043D000D8019093D901A093DA01B093DB01BF918A
:1043E000AF919F918F910F900FBE0F901F901895D6
:1043F0000E94CB11F8942FEF87EA91E6215080407C
:104400009040E1F700C0000087E090EBDC01809372
:10441000F8019093F901A093FA01B093FB019CE09D
:1044200088E10FB6F894A895809360000FBE909332
:104430006000FFCFEF92FF920F931F93CF93DF9314
:10444000D82FC0E08C2F0E948C0A00E010E0E82EEC
:10445000F12CC701002E02C0959587950A94E2F7CA
:1044600080FD06C00F5F1F4F0630110591F709C090
:10447000602F7C2F80E00E949A0B8D13F3CF81E098
:1044800004C0CF5FCE30F1F680E0DF91CF911F9175
:104490000F91FF90EF900895CF93C82F8CE20E9468
:1044A0001A22882321F08C2FCF910C941A2280E0BD
:1044B000CF910895CF930E94A923811102C00E9439
:1044C0008F238CEF95E00E945707C5E6C15049F055
:1044D0000E9458098FE39CE90197F1F700C00000A2
:1044E000F5CF85EF95E00E94570789E20E944C22A4
:1044F000811113C18AE20E944C2281110E948F23F4
:1045000085E00E944C2281110E94F8210E94B42370
:104510008093D70187E00E944C228823A9F18BE188
:104520000E944C22882351F08091D70181FB2227E1
:1045300020F991E0922790FB81F90EC08EE00E9455
:104540004C22882361F08091D70182FB222720F939
:1045500091E0922790FB82F98093D70115C080E10A
:104560000E944C229091D701882341F093FB22278F
:1045700020F981E0822780FB93F904C0892F809580
:1045800080FB90F99093D7018091D7010E94B823C6
:104590000E94C6238093E90180EE0E944C2288236A
:1045A00041F08091E901982F909590FB80F98093DC
:1045B000E90189E30E944C22882359F08091E901A6
:1045C00081FB222720F991E0922790FB81F98093CB
:1045D000E90182EE0E944C22882359F08091E90182
:1045E00082FB222720F991E0922790FB82F98093A9
:1045F000E90186EE0E944C22882359F08091E9015E
:1046000083FB222720F991E0922790FB83F9809386
:10461000E90183EE0E944C22882359F08091E90140
:1046200084FB222720F991E0922790FB84F9809364
:10463000E90185E30E944C22882359F08091E90129
:1046400085FB222720F991E0922790FB85F9809342
:10465000E90181E30E944C22882359F08091E9010D
:1046600086FB222720F991E0922790FB86F9809320
:10467000E90181E10E944C22882359F08091E901EF
:1046800087FB222720F991E0922790FB87F98093FE
:10469000E9018091E9010E94CA238091E90187FB29
:1046A000882780F980930D0187E20E944C22C82F51
:1046B0008EE10E944C228111C2608FE10E944C2247
:1046C0008111C46080E20E944C228111C86081E2A5
:1046D0000E944C228111C06182E20E944C22811111
:1046E000C06283E20E944C228111C06484E20E9475
:1046F0004C22882311F0C06802C0CC2329F08C2FF3
:104700000E94C1236C2F03C00E94BD23682F70E05C
:1047100080E090E0CF910C94591ECF9108956DEEFA
:104720007EEF80E090E00E94A02D60E082E090E0CB
:104730000E94922D60E083E090E00E94922D60E064
:1047400084E090E00E94922D60E085E090E00C947F
:10475000922D80E090E00E948C2D21E08D3E9E4FB6
:1047600009F020E0822F089582E090E00C94842DDF
:10477000682F82E090E00C94922D83E090E00C94FE
:10478000842D682F83E090E00C94922D84E090E0DB
:104790000C94842D682F84E090E00C94922D8091ED
:1047A000DE0180FF0BC06091130185E0689FB001BE
:1047B000112475956795759567952BC081FF09C084
:1047C0006091130185E0689FB0011124759567958C
:1047D00020C082FF07C06091130185E0689FB0018F
:1047E000112417C09091DF019923D1F0609112013B
:1047F000961788F72091130185E0289F90011124D6
:10480000929FA001939F500D112470E0CA010E9455
:10481000562D6038710540F46115710519F406C014
:1048200065E070E0862F08958FE7089581E0089590
:104830008091DE0180FF08C06091110170E07595E4
:1048400067957595679521C081FF06C0609111013C
:1048500070E07595679519C082FF04C060911101E1
:1048600070E010C09091DF01992399F060911001E0
:104870009617A0F780911101899FC001112470E063
:104880000E94562D6038710540F46115710519F4C8
:1048900006C061E070E0862F08958FE7089581E0FB
:1048A0000895803F21F40E94CF23819504C0813F69
:1048B00029F40E94CF238093E2010895823F21F4DE
:1048C0000E94CF23819504C0833F29F40E94CF2307
:1048D0008093E1010895893F19F40E94182405C0CE
:1048E0008A3F31F40E94182481958093E301089552
:1048F0008B3F21F40E941824819504C08C3F29F439
:104900000E9418248093E4010895843F21F480914B
:10491000E001816017C0853F21F48091E001826051
:1049200011C0863F21F48091E00184600BC0873F75
:1049300021F48091E001886005C0883F31F48091C6
:10494000E00180618093E00108958D3F21F4809122
:10495000DE0181600BC08E3F21F48091DE01826018
:1049600005C08F3F29F48091DE0184608093DE01D1
:104970000895803F39F48091E20187FF6CC0109266
:10498000E20169C0813F29F48091E2011816BCF36D
:1049900062C09091E101823F29F497FF5CC01092C0
:1049A000E10159C0833F19F41916CCF354C0893F73
:1049B00041F48091E30118160CF04DC01092E30110
:1049C0004AC08A3F29F48091E30187FF44C0F6CFB3
:1049D0008B3F39F48091E40187FF3DC01092E401E0
:1049E0003AC08C3F29F48091E4011816BCF333C01F
:1049F000843F21F48091E0018E7F17C0853F21F430
:104A00008091E0018D7F11C0863F21F48091E0010B
:104A10008B7F0BC0873F21F48091E001877F05C029
:104A2000883F31F48091E0018F7E8093E00113C0D4
:104A30008D3F21F48091DE018E7F0BC08E3F21F4EB
:104A40008091DE018D7F05C08F3F29F48091DE01CA
:104A50008B7F8093DE018091E10181110EC08091F6
:104A6000E20181110AC08091E301811106C08091A9
:104A7000E401811102C01092DF0108958091D701F5
:104A800083FF7EC088E396E00E9457078091E00193
:104A90001F928F9383E396E09F938F930E94F0077A
:104AA00081E396E00E9457078091E101282F082EAC
:104AB000000C330B3F938F938EE296E09F938F937E
:104AC0000E94F0078CE296E00E9457078091E20175
:104AD000282F082E000C330B3F938F9389E296E02A
:104AE0009F938F930E94F00787E296E00E945707FA
:104AF0008091E301282F082E000C330B3F938F93F6
:104B000084E296E09F938F930E94F00782E296E002
:104B10000E9457078091E401282F082E000C330BC8
:104B20003F938F938FE196E09F938F930E94F007BE
:104B30008CE196E00E9457078091DF011F928F93CE
:104B400089E196E09F938F930E94F00787E196E0BA
:104B50000E9457078091DE011F928F9384E196E0B7
:104B60009F938F930E94F00781E196E00E94570780
:104B70008DB79EB74C960FB6F8949EBF0FBE8DBFF3
:104B800080EE91E00E9426150E949D219093DD0108
:104B90008093DC0108951F93CF93DF938091DC0114
:104BA0009091DD010E94A921AC019091DF01992330
:104BB00021F02091140130E006C0209115018AE017
:104BC000289F900111244217530708F485C0809153
:104BD000E101C091E201D091E3011091E401811162
:104BE00007C0C11175C0D11173C0111171C074C05B
:104BF0009F3F19F09F5F9093DF01181624F40E94E5
:104C0000CF238093E1018091E10187FF05C00E94DD
:104C1000CF2381958093E1011C1624F40E94CF23B9
:104C20008093E2018091E20187FF05C00E94CF23BB
:104C300081958093E2016091E101662331F1C09199
:104C4000E201CC2311F1062E000C770B880B990B97
:104C50000E94512C23E333E343E35FE30E94B52C2E
:104C60000E94192C6093E1016C2FCC0F770B880BFD
:104C7000990B0E94512C23E333E343E35FE30E944B
:104C8000B52C0E94192C6093E2011D1624F40E9499
:104C900018248093E3018091E30187FF05C00E94FF
:104CA000182481958093E301111624F40E9418249E
:104CB0008093E4018091E40187FF05C00E941824DD
:104CC00081958093E401DF91CF911F910C943E2553
:104CD0009F3F09F08FCFA0CFDF91CF911F91089513
:104CE000E0EEF1E085E0DF011D928A95E9F7109290
:104CF000DF011092DE0108958BE598E00E945707CE
:104D00001F9281E08F931F9285E08F938DE098E052
:104D10009F938F930E94F0070F900F900F900F902A
:104D20000F900F9008958330E9F128F4813061F0FD
:104D3000823009F10895853009F462C008F449C051
:104D4000863009F474C0089580911501262F30E053
:104D5000280F311D2F3F310524F4680F6093150192
:104D600003C08FEF80931501809115011F928F93DF
:104D700086E497E072C080911401262F30E0280F5E
:104D8000311D2F3F310524F4680F6093140103C0D7
:104D90008FEF80931401809114011F928F9384E30D
:104DA00097E05BC080911301262F30E0280F311D62
:104DB0002F3F310524F4680F6093130103C08FEF78
:104DC00080931301809113011F928F9381E297E0EA
:104DD00044C080911201262F30E0280F311D2F3F53
:104DE000310524F4680F6093120103C08FEF8093A4
:104DF0001201809112011F928F938CE097E02DC0D9
:104E000080911101262F30E0280F311D2F3F3105F1
:104E100024F4680F6093110103C08FEF8093110198
:104E2000809111011F928F9383EF96E016C08091BD
:104E30001001262F30E0280F311D2F3F310524F4BB
:104E4000680F6093100103C08FEF80931001809171
:104E500010011F928F9388ED96E09F938F930E948D
:104E6000F0070F900F900F900F900895833081F10D
:104E700028F4813059F08230D1F00895853009F45A
:104E800049C0B8F1863009F456C0089580911501E3
:104E9000681720F4861B8093150102C0109215013B
:104EA000809115011F928F9389EC96E054C08091F8
:104EB0001401681720F4861B8093140102C010921D
:104EC0001401809114011F928F9387EB96E043C0E9
:104ED00080911301681720F4861B8093130102C090
:104EE00010921301809113011F928F9384EA96E030
:104EF00032C080911201681720F4861B8093120142
:104F000002C010921201809112011F928F938FE8BC
:104F100096E021C080911101681720F4861B8093D0
:104F2000110102C010921101809111011F928F9303
:104F300086E796E010C080911001681720F4861B68
:104F40008093100102C010921001809110011F92F5
:104F50008F938BE596E09F938F930E94F0070F90BD
:104F60000F900F900F900895CF93C82F1F928F939B
:104F700080E699E09F938F930E94F00781E090E094
:104F8000A0E0B0E0BC01CD0104C0660F771F881F10
:104F9000991FCA95D2F70E94591E0F900F900F903B
:104FA0000F90CF910C94A21ACF938D3109F465C064
:104FB000B0F58E3009F4CCC100F5873009F49BC1FF
:104FC000A8F4863009F06DC28091D701817F8E7F71
:104FD0008093D70185E699E00E94570784EA9DE017
:104FE0000E94570781E08093E60180C1883009F470
:104FF0004FC08B3009F47CC154C2863109F4F0C132
:1050000038F4803109F4B8C1813109F430C249C2A1
:10501000893109F4CEC18B3109F486C142C285338E
:1050200009F437C248F4873209F433C208F433C2B2
:10503000893209F42EC235C2833438F48A3308F039
:105040002CC2883309F454C12CC2833409F421C220
:10505000883409F026C20E94A21A83E99DE00E94CA
:1050600057079FEF23ED80E3915020408040E1F708
:1050700000C000000E94F82139C183EB9DE00E942E
:1050800057070E94D32B0E94D2140E94000D2EC1FC
:1050900088EA9DE00E94570786E79BE00E94570739
:1050A0000E94BD231F928F9383E79BE09F938F9372
:1050B0000E94F00781E79BE00E9457070E94B423FB
:1050C000C82F8EE59BE00E9457071F92CF9389E57A
:1050D0009BE09F938F930E94F00787E59BE00E94DF
:1050E00057078DE49BE00E9457078C2F81701F9219
:1050F0008F938AE49BE09F938F930E94F00788E44C
:105100009BE00E9457078EE39BE00E945707C1FB7C
:10511000882780F91F928F938BE39BE09F938F9357
:105120000E94F00789E39BE00E9457078DE29BE015
:105130000E945707C2FB882780F91F928F938AE24B
:105140009BE09F938F930E94F00788E29BE00E9470
:1051500057078FE19BE00E945707C3FBCC27C0F99C
:105160001F92CF938CE19BE09F938F930E94F00757
:105170008AE19BE00E9457070E94C623C82F86E061
:105180009BE00E9457071F92CF9381E09BE09F9383
:105190008F930E94F0078FEF9AE00E94570786EEE8
:1051A0009AE00E9457078C2F81701F928F9383EE95
:1051B0009AE09F938F930E94F0078DB79EB78096D9
:1051C0000FB6F8949EBF0FBE8DBF81EE9AE00E948D
:1051D00057078AEC9AE00E945707C1FB882780F99D
:1051E0001F928F9387EC9AE09F938F930E94F00712
:1051F00085EC9AE00E94570783EB9AE00E945707DC
:10520000C2FB882780F91F928F9380EB9AE09F93CF
:105210008F930E94F0078EEA9AE00E9457078CE96C
:105220009AE00E945707C3FB882780F91F928F934B
:1052300089E99AE09F938F930E94F00787E99AE0AB
:105240000E9457078DE89AE00E945707C4FB882701
:1052500080F91F928F938AE89AE09F938F930E9420
:10526000F00788E89AE00E94570786E79AE00E94D4
:105270005707C5FB882780F91F928F9383E79AE031
:105280009F938F930E94F00781E79AE00E9457074F
:1052900085E59AE00E945707C6FB882780F91F9290
:1052A0008F9382E59AE09F938F930E94F00780E5A9
:1052B0009AE00E94570788E49AE00E945707C7FBCC
:1052C000CC27C0F91F92CF9385E49AE09F938F93E8
:1052D0000E94F00783E49AE00E9457078DB79EB7BB
:1052E0004C960FB6F8949EBF0FBE8DBFC1E0DEC0D6
:1052F0008CE899E05BC08091D701C82FC17080FF16
:1053000009C086E89DE00E9457078091D701817F00
:105310008E7F47C08AE79DE00E9457078091D701A2
:1053200081608093D701E2CF9091D70191FBCC2788
:10533000C0F981E0C827892FC0FB81F98093D7018C
:10534000CC2319F08DE69DE027C08FE59DE02EC0AF
:105350009091D70192FBCC27C0F981E0C827892F13
:10536000C0FB82F98093D701CC2319F080E59DE042
:1053700013C080E49DE01AC09091D70193FBCC2725
:10538000C0F981E0C827892FC0FB83F98093D7013A
:10539000CC2351F084E39DE00E9457078091D70110
:1053A00081608093D70182C087E29DE00E94570709
:1053B0009DCF88E19DE00E9457078CEE9CE00E9403
:1053C00057078FEA9CE00E94570788E89CE00E94FC
:1053D000570784E49CE00E94570786E19CE0E6CFF3
:1053E00088E09CE00E9457070E94D2141F928F937E
:1053F0008EEE9BE09F938F930E94F00780910C01AB
:105400001F928F9387ED9BE09F938F930E94F007ED
:1054100080916E011F928F9384EC9BE09F938F93FA
:105420000E94F00780910D011F928F9381EB9BE00A
:105430009F938F930E94F0078091D8019091D9019A
:10544000A091DA01B091DB01BF93AF939F938F934B
:105450008DE99BE09F938F930E94F0078DB79EB7D5
:1054600046960FB6F8949EBF0FBE8DBF3FCF0E94E9
:10547000A21AC0910D0181E0C827C0930D01CC2371
:1054800029F083E99BE00E94570710C088E89BE061
:105490008DCF80E003C08D5101C089530E94B42795
:1054A00025CF86E89BE00E945707C0E08C2FCF9164
:1054B000089580E008950C94592ACF93C82F8091C5
:1054C000E601813081F020F0823009F44FC045C1FF
:1054D000E0910E01F0910F018081813169F08232FB
:1054E00009F03DC109C0E0910E01F0910F018081EA
:1054F000813111F0823261F48C2F0E945B2A81117C
:1055000004C08C2F0E94D4272FC081E090E02CC0D3
:105510008C2F0E94592A811126C0C431E1F070F409
:10552000CB3081F0C031D1F40E947C2688E599E02F
:105530000E94570782E08093E60115C0C93259F0F6
:10554000C83361F485E699E00E9457078CE599E03D
:105550000E94570708C01092E60103C186E599E052
:105560000E945707FEC081E08170FDC0C43220F563
:10557000CE3108F0C0C0CB3099F1C8F4C73009F083
:10558000D2C08AE08093150194E19093140193E0D6
:10559000909313018093120188E08093110188E2B7
:1055A000809310018CEF97E00E945707BFC0C33172
:1055B00049F1C431C1F0B7C0CB3409F4A9C028F413
:1055C000C93289F0C83361F0AEC0C13509F49EC05C
:1055D000C23509F499C0CE3409F0A5C06AE09EC076
:1055E0000E947C26A3C08091E501882319F01092C7
:1055F000E5019CC089E098E00E94570781E0809314
:10560000E601B1C083EE97E00E94570781ED97E075
:105610000E945707809115011F928F938EEC97E09F
:105620009F938F930E94F0078CEC97E00E9457079E
:105630008AEB97E00E945707809114011F928F9385
:1056400087EB97E09F938F930E94F00785EB97E09D
:105650000E94570786EA97E00E945707809113013E
:105660001F928F9383EA97E09F938F930E94F00796
:1056700081EA97E00E94570780E997E00E94570768
:10568000809112011F928F938DE897E09F938F93E3
:105690000E94F0078BE897E00E94570786E797E0A3
:1056A0000E945707809111011F928F9383E797E023
:1056B0009F938F930E94F00781E797E00E9457071E
:1056C0008AE597E00E945707809110011F928F93FF
:1056D00087E597E09F938F930E94F00785E597E019
:1056E0000E9457078DB79EB748960FB6F8949EBF95
:1056F0000FBE8DBF1BC0CE51EC2FF0E0E15DFE4F21
:1057000080818093E50112C061E003C061E006C0C2
:105710006AE08091E5010E94932608C08091E5012E
:105720000E94362703C08AEF97E013C08091E501FD
:10573000882369F01F928F9384EF97E09F938F9354
:105740000E94F0070F900F900F900F9004C081EF10
:1057500097E00E94570781E006C01092E60180E0C2
:1057600002C080E001CFCF910895E1E8F0E08081B0
:10577000886080838081816080838FB7F89493E014
:105780009093890090ED909388008FBF0895EFE685
:10579000F0E08081826080830895EFE6F0E0808110
:1057A0008D7F80830895EFE6F0E0908182E0892785
:1057B000808308951F920F920FB60F9211242F939A
:1057C0003F934F935F936F937F938F939F93AF9389
:1057D000BF93EF93FF938091E7019091E8010196C9
:1057E0009093E8018093E701811103C082E00E9459
:1057F000000DE091E801E695E695F0E0ED53F24FFB
:10580000E4918091E7018E1303C080E00E94000DB7
:10581000FF91EF91BF91AF919F918F917F916F9188
:105820005F914F913F912F910F900FBE0F901F905E
:1058300018950E94202C6894B1110C94AF2C0895F7
:105840000E94942C88F09F5798F0B92F9927B75150
:10585000B0F0E1F0660F771F881F991F1AF0BA9514
:10586000C9F714C0B13091F00E94AE2CB1E0089598
:105870000C94AE2C672F782F8827B85F39F0B93F8A
:10588000CCF3869577956795B395D9F73EF49095C7
:105890008095709561957F4F8F4F9F4F0895E89445
:1058A00009C097FB3EF490958095709561957F4F68
:1058B0008F4F9F4F9923A9F0F92F96E9BB27939516
:1058C000F695879577956795B795F111F8CFFAF426
:1058D000BB0F11F460FF1BC06F5F7F4F8F4F9F4F57
:1058E00016C0882311F096E911C0772321F09EE8B5
:1058F000872F762F05C0662371F096E8862F70E01B
:1059000060E02AF09A95660F771F881FDAF7880FF4
:105910009695879597F9089557FD9058440F551F10
:1059200059F05F3F71F04795880F97FB991F61F021
:105930009F3F79F087950895121613061406551F98
:10594000F2CF4695F1DF08C0161617061806991F04
:10595000F1CF86957105610508940895E894BB27F9
:1059600066277727CB0197F908950E94C82C0C94DD
:10597000392D0E942B2D38F00E94322D20F09523D6
:1059800011F00C94222D0C94282D11240C94AF2C82
:105990000E948C2C70F3959FC1F3950F50E0551F1A
:1059A000629FF001729FBB27F00DB11D639FAA2774
:1059B000F00DB11DAA1F649F6627B00DA11D661FC3
:1059C000829F2227B00DA11D621F739FB00DA11DE4
:1059D000621F839FA00D611D221F749F3327A00D9E
:1059E000611D231F849F600D211D822F762F6A2F3A
:1059F00011249F5750409AF0F1F088234AF0EE0F9F
:105A0000FF1FBB1F661F771F881F91505040A9F7CB
:105A10009E3F510580F00C94222D0C94AF2C5F3FDB
:105A2000E4F3983ED4F3869577956795B795F79507
:105A3000E7959F5FC1F7FE2B880F911D969587957F
:105A400097F9089597F99F6780E870E060E00895FE
:105A50009FEF80EC089500240A9416161706180686
:105A60000906089500240A94121613061406050662
:105A70000895092E0394000C11F4882352F0BB0FF3
:105A800040F4BF2B11F460FF04C06F5F7F4F8F4F56
:105A90009F4F0895991B79E004C0991F961708F04D
:105AA000961B881F7A95C9F78095089597FB072E56
:105AB00016F4009407D077FD09D00E94702D07FCE2
:105AC00005D03EF4909581959F4F0895709561950E
:105AD0007F4F0895EE0FFF1F0590F491E02D09947C
